:02000000E42CEE
:10000800FF00030E8301BB000A08BA008A017008CA
:10001800A5007108A4007208A3007308A200740860
:10002800A1000B1D1F28B80A0319B90AB20A03193F
:10003800B30AFB308B050C1D5A2800302F06031D10
:10004800272801302E06031D5628360837040319C1
:100058003E283108F0000030B11BFF30F100700875
:10006800960030089500B601B701093097008F0156
:100078008E0155283008403CF3003108031C013E2E
:100088009C3CF4007408F000F101700896007308B5
:100098009500083097000130B6000030B7008F0196
:1000A8008E015828FB308C05FB308C052508F000A4
:1000B8002408F1002308F2002208F3002108F400C4
:0E00C8003A088A003B0E8300FF0E7F0E0900EF
:0E00D600F201F101F001F801F3010030080021
:1000E4007B15FB1F7C280130F300F201F101F001C4
:0800F400FA0DF20CFF300800C8
:0800FC00FA1FF21300300800A6
:100104007B14FB1F8D28F201FA1FFF30F200F1006F
:0A011400F000FA0DF20CFF300800B5
:10011E00FB14FB1F9928FF30F300F200F100F000F2
:08012E00FA0DF20CFF3008008D
:0A0136008312031340089B00080029
:06014000FB15FF30080072
:10014600A0017208031DB8287108F2007008F100BA
:10015600F001A0157208031DB8287108F200F1011C
:10016600A011201672080319C6282008F302031DE1
:10017600031CCA280310F21BCE28F00DF10DF20D58
:10018600F30BBE28CA280130FC006B20D1280230B0
:0E019600FC007220D1280430FC007E200800FE
:1001A40083120313FB01730803190F297208FA0061
:1001B400F2178E30F302F31F1229F309F30A083001
:1001C4007302031CF528F300F10D7208F100F2012B
:1001D40008307302031CF528F300F10DF1017308D4
:1001E400031D0310FD2873080319FD280310F20CE6
:1001F400F10CF30BF8287B1B711C0729031C07293E
:10020400F10A0319F20AF21B1E29FA1F2129F20925
:10021400F109F10A0319F20A2129F201F101212954
:100224007B14FB1F2429F201FA1F2429FF30F2005A
:10023400F100FA0DF20C24290130FC0026290030CB
:10024400FC002629FF30FC00FC0803192A2982201F
:0A0254007108F0007208F1000800C4
:10025E00F030831203138605C001C1019B200800F4
:10026E00710DF80DF90D7408F8027508031C750F61
:10027E00F902F00DF10D0F30FC00710DF80DF90DB6
:10028E007408701C5029F8027508031C750FF902CA
:10029E005529F80775080318750FF907F00DF10DBC
:1002AE00FC0B4429701861297408F80775080318A7
:0802BE00750FF90700000800AC
:1002C60083120313B801B90180303906F00080307B
:1002D6003F067002031D71293E083802031874296F
:0402E600672908007C
:1002EA00831203137008F8007108F000F101F2019B
:1002FA00F301FB01FC019630F300FA01F01F8B2990
:10030A00F809F009F80A0319F00AFA177008F10057
:0C031A007808F000F801F201A3200800B0
:10032600831203137408003A031DAE297508003AB8
:10033600031DAE297608003A031DAE297708003A58
:10034600031DAE29FF30F000FF30F1007F30F200D0
:10035600FF30F300492A83120313770803193D2A55
:1003660073080319402A720876068039FA00F217D4
:10037600F617A0017208F8007108FC007008FD006D
:100386007408FD027508031C750FFC027608031C31
:10039600760FF802F801FC01FD01031CD9290310B0
:1003A600F20CF10CF00CF80C0130A0007708F30207
:1003B600031CE3297E302007F3070318432AE829A4
:1003C6007E302007F307031C462A1830FA07FD0D76
:1003D600FC0DF80DF00DF10DF20DA00D7408F002F4
:1003E6007508031C750FF1027608031C760FF202DE
:1003F600760DA004201C012A7D140C2A7408F0072F
:1004060075080318750FF10776080318760AF207C0
:100416007D10FA031F307A05031DEA297B1B7D1C1C
:10042600332A0310F00DF10DF20DA00D7408F00241
:100436007508031C750FF1027608031C760FF2028D
:10044600760D20040139FD070318FC0A0319F80A82
:10045600031D332AF80CFC0CFD0CF30A0319432A7E
:10046600FA1FF8137808F2007C08F1007D08F00006
:100476000030482A0130A020482A02306B20482A42
:0E04860004308F20482A083072200000080041
:100494002F215A30C0000030C1009B20061486155D
:0204A40008004E
:0E04A6008312031329088A0028088200080028
:1004B400831203137408003A031D692A7508003A6D
:1004C400031D692AFF30F0007F30F100C22A831235
:1004D4000313FD01F901F8017108700403190034D4
:1004E40071087506FA00FA1BFD09FB01F51F7F2A46
:1004F400F409F509F40A0319F50AF11F862AF0092B
:10050400F109F00A0319F10A71087504FA00FA1BDB
:100514009B2A37217B18AE2AFD1F0034F009F1090C
:10052400F00A0319F10AF809F909F80A0319F90A92
:100534000034F51FAA2AF11BA62A7108F9007008D5
:10054400F800F101F0018E2AF101F001F00A003403
:10055400F109F009FB0A8B2AF80A0319F90A74084D
:100564007802031D8E2A75087902031D8E2AF9016B
:10057400F801F00A0319F10AF11F8E2A0000FF3472
:0205840008006D
:100586002F215A30C0000030C1009B2086148615EA
:0205960008005B
:1005980083120313BC01BD01103090006430BE000B
:1005A8000030BF0063218F018E0107170130BE00A4
:1005B8000030BF006321BF308705871BE42AE12A8A
:1005C8001014871FE82AE52AFE3090050F08F1006D
:1005D800F0010E08F0040030F1047008BC00710846
:1005E800BD007521AE30F4004730F5006B30F600E1
:1005F8008430F7009321D2207008BC007108BD0038
:100608000A30BE000030BF006321013090003C0872
:08061800F0003D08F1000800AC
:100620002F21AA30C000C1019B2006140615080026
:100630002F215A30C0000030C1009B2006158614BF
:020640000800B0
:10064200831203131F151F1D272B242B1E08F100D5
:0E065200F00183161E08F0040030F1040800C9
:1006600083120313881C482BB201B3010819472BCE
:1006700080303306F000803027067002031D422BC5
:1006800026083202031C452B472B4A22362B2F21EA
:02069000080060
:1006920083120313081C6E2BB201B3010819602BDD
:1006A20080303306F000803027067002031D5B2B7A
:1006B20026083202031C5E2B602B18234F2B0230BC
:1006C200FB000430FC00BA30FD00FD0B662BFC0B76
:0C06D200662BFB0B662B00002F2108009C
:1006DE0083120313081D9C2B212370088312AC0078
:1006EE007108AD0080302D06F00080307002031DC1
:1006FE00822B46302C0203188C2BC3222123700828
:10070E008312AC007108AD00792B80302D06F000FD
:10071E0080307002031D952B46302C02031C982B43
:10072E009C2B08199B2B9C2B6F2B6430BE0000302A
:08073E00BF0063212F21080018
:1007460083120313081D052C212370088312AC00A5
:100756007108AD008030F00080302D067002031D58
:10076600B62B2C08463C0318C52B80302D06F0000E
:100776008030013A7002031DC22B90302C02031800
:10078600C52BF52B212370088312AC007108AD0030
:100796001023CC227008B4007108B50080307106B1
:1007A600F20080307202031DDA2B14307002031837
:1007B600F02B1823D030BE000730BF006321102372
:1007C600D030BE000730BF0063214A22D030BE00C1
:1007D6000730BF0063211023F12B10230819F42BD7
:1007E600F52BAD2B8030F00080302D067002031DF6
:1007F600FE2B2C08463C031C012C052C081D042C42
:10080600052CA32B6430BE000030BF0063212F21CE
:020816000800D8
:1008180083120313881D132CAA0A0319AB0A02308A
:10082800F4000030F5002A08F0002B08F1005A22E5
:100838007808F0007908F10000307106031D262CB5
:1008480000307006031D2B2CAA01AB012F2C0130A0
:08085800AA000030AB0008000B
:1008600007308312031392000C309D00FA30831678
:0A08700092007D3083129B00080007
:10087A004130831203139F00CE3083169F0001304C
:04088A0085000800DD
:10088E0001308316031385008601803087000F30F8
:10089E0088008312850186018701880187308316BF
:1008AE008100831281018F018E010130B60000306C
:1008BE00B7000830970001309000E0308B008316AF
:0E08CE000C15073083129600D03095000800FC
:1008DC00212370088312AC007108AD00081DC82CD0
:1008EC0080302D06F00080307002031D7F2C4630C6
:1008FC002C02031C8E2C8030013AF00080302D0627
:10090C007002031D8B2C2C08903C031C8E2C8F2CFE
:10091C00C82C2F210130AE000030AF008617E83014
:10092C00B0000330B100C0308804D030BE000730B6
:10093C00BF006321AC30B0000D30B1003F308805F2
:10094C00D030BE000730BF006321E830B000033068
:10095C00B100C0308804D030BE000730BF00632126
:10096C00AC30B0000D30B1003F308805D030BE0047
:10097C000730BF006321E830B0000330B100C03055
:10098C008804742C3F308805CA30B0000830B100A0
:10099C00D030BE000730BF006321AE01AF017F3005
:0409AC0086050800B4
:1009B00053228A110A128000840AA80A0319A90A7C
:0809C000F003031DD82C080010
:1009C800883083120313A6001330A70047243D2460
:1009D8003024AA01AB010130AE000030AF00DF3097
:1009E80088050C242A082B040319062D8816492388
:1009F8000C2430230C24A3230C246F230C246E24F2
:080A08000C24F62CF32C072D41
:02400E004A2F37
:00000001FF
